{
  "_format": "hh-sol-artifact-1",
  "contractName": "Web3RSVP",
  "sourceName": "contracts/Web3RSVP.sol",
  "abi": [
    {
      "anonymous": false,
      "inputs": [
        {
          "indexed": false,
          "internalType": "bytes32",
          "name": "eventID",
          "type": "bytes32"
        },
        {
          "indexed": false,
          "internalType": "address",
          "name": "attendeeAddress",
          "type": "address"
        }
      ],
      "name": "ConfirmedAttendee",
      "type": "event"
    },
    {
      "anonymous": false,
      "inputs": [
        {
          "indexed": false,
          "internalType": "bytes32",
          "name": "eventID",
          "type": "bytes32"
        }
      ],
      "name": "DepositsPaidOut",
      "type": "event"
    },
    {
      "anonymous": false,
      "inputs": [
        {
          "indexed": false,
          "internalType": "bytes32",
          "name": "eventID",
          "type": "bytes32"
        },
        {
          "indexed": false,
          "internalType": "address",
          "name": "creatorAddress",
          "type": "address"
        },
        {
          "indexed": false,
          "internalType": "uint256",
          "name": "eventTimestamp",
          "type": "uint256"
        },
        {
          "indexed": false,
          "internalType": "uint256",
          "name": "maxCapacity",
          "type": "uint256"
        },
        {
          "indexed": false,
          "internalType": "uint256",
          "name": "deposit",
          "type": "uint256"
        },
        {
          "indexed": false,
          "internalType": "string",
          "name": "eventDataCID",
          "type": "string"
        }
      ],
      "name": "NewEventCreated",
      "type": "event"
    },
    {
      "anonymous": false,
      "inputs": [
        {
          "indexed": false,
          "internalType": "bytes32",
          "name": "eventID",
          "type": "bytes32"
        },
        {
          "indexed": false,
          "internalType": "address",
          "name": "attendeeAddress",
          "type": "address"
        }
      ],
      "name": "NewRSVP",
      "type": "event"
    },
    {
      "inputs": [
        {
          "internalType": "bytes32",
          "name": "eventId",
          "type": "bytes32"
        }
      ],
      "name": "confirmAllAttendees",
      "outputs": [],
      "stateMutability": "nonpayable",
      "type": "function"
    },
    {
      "inputs": [
        {
          "internalType": "bytes32",
          "name": "eventId",
          "type": "bytes32"
        },
        {
          "internalType": "address",
          "name": "attendee",
          "type": "address"
        }
      ],
      "name": "confirmAttendee",
      "outputs": [],
      "stateMutability": "nonpayable",
      "type": "function"
    },
    {
      "inputs": [
        {
          "internalType": "uint256",
          "name": "eventTimestamp",
          "type": "uint256"
        },
        {
          "internalType": "uint256",
          "name": "deposit",
          "type": "uint256"
        },
        {
          "internalType": "uint256",
          "name": "maxCapacity",
          "type": "uint256"
        },
        {
          "internalType": "string",
          "name": "eventDataCID",
          "type": "string"
        }
      ],
      "name": "createEvent",
      "outputs": [],
      "stateMutability": "nonpayable",
      "type": "function"
    },
    {
      "inputs": [
        {
          "internalType": "bytes32",
          "name": "eventId",
          "type": "bytes32"
        }
      ],
      "name": "createNewRSVP",
      "outputs": [],
      "stateMutability": "payable",
      "type": "function"
    },
    {
      "inputs": [
        {
          "internalType": "bytes32",
          "name": "",
          "type": "bytes32"
        }
      ],
      "name": "idToEvent",
      "outputs": [
        {
          "internalType": "bytes32",
          "name": "eventId",
          "type": "bytes32"
        },
        {
          "internalType": "string",
          "name": "eventDataCID",
          "type": "string"
        },
        {
          "internalType": "address",
          "name": "eventOwner",
          "type": "address"
        },
        {
          "internalType": "uint256",
          "name": "eventTimestamp",
          "type": "uint256"
        },
        {
          "internalType": "uint256",
          "name": "deposit",
          "type": "uint256"
        },
        {
          "internalType": "uint256",
          "name": "maxCapacity",
          "type": "uint256"
        },
        {
          "internalType": "bool",
          "name": "paidOut",
          "type": "bool"
        }
      ],
      "stateMutability": "view",
      "type": "function"
    },
    {
      "inputs": [
        {
          "internalType": "bytes32",
          "name": "eventId",
          "type": "bytes32"
        }
      ],
      "name": "withdrawUnclaimedDeposits",
      "outputs": [],
      "stateMutability": "nonpayable",
      "type": "function"
    }
  ],
  "bytecode": "0x608060405234801561001057600080fd5b50612192806100206000396000f3fe6080604052600436106100555760003560e01c806317f0165a1461005a5780636dcdf2cd14610076578063754d0e511461009f57806379747571146100c8578063909ef021146100f1578063acdbe01214610134575b600080fd5b610074600480360381019061006f9190611506565b61015d565b005b34801561008257600080fd5b5061009d60048036038101906100989190611591565b6103ca565b005b3480156100ab57600080fd5b506100c660048036038101906100c1919061166c565b6108a3565b005b3480156100d457600080fd5b506100ef60048036038101906100ea9190611506565b610abf565b005b3480156100fd57600080fd5b5061011860048036038101906101139190611506565b610f71565b60405161012b97969594939291906117d5565b60405180910390f35b34801561014057600080fd5b5061015b60048036038101906101569190611506565b611068565b005b60008060008381526020019081526020016000209050806004015434146101b9576040517f08c379a00000000000000000000000000000000000000000000000000000000081526004016101b090611897565b60405180910390fd5b8060030154421115610200576040517f08c379a00000000000000000000000000000000000000000000000000000000081526004016101f790611903565b60405180910390fd5b806005015481600601805490501061024d576040517f08c379a00000000000000000000000000000000000000000000000000000000081526004016102449061196f565b60405180910390fd5b60005b81600601805490508160ff161015610327573373ffffffffffffffffffffffffffffffffffffffff16826006018260ff16815481106102925761029161198f565b5b9060005260206000200160009054906101000a900473ffffffffffffffffffffffffffffffffffffffff1673ffffffffffffffffffffffffffffffffffffffff161415610314576040517f08c379a000000000000000000000000000000000000000000000000000000000815260040161030b90611a0a565b60405180910390fd5b808061031f90611a66565b915050610250565b5080600601339080600181540180825580915050600190039060005260206000200160009091909190916101000a81548173ffffffffffffffffffffffffffffffffffffffff021916908373ffffffffffffffffffffffffffffffffffffffff1602179055507fb79f4240bbdd272d98e02a5db7f0cf156e5fc000961c517670a26eeeec63ed9082336040516103be929190611a90565b60405180910390a15050565b600080600084815260200190815260200160002090508060020160009054906101000a900473ffffffffffffffffffffffffffffffffffffffff1673ffffffffffffffffffffffffffffffffffffffff163373ffffffffffffffffffffffffffffffffffffffff1614610472576040517f08c379a000000000000000000000000000000000000000000000000000000000815260040161046990611b05565b60405180910390fd5b600080600090505b82600601805490508160ff16101561055d578373ffffffffffffffffffffffffffffffffffffffff16836006018260ff16815481106104bc576104bb61198f565b5b9060005260206000200160009054906101000a900473ffffffffffffffffffffffffffffffffffffffff1673ffffffffffffffffffffffffffffffffffffffff16141561054a57826006018160ff168154811061051c5761051b61198f565b5b9060005260206000200160009054906101000a900473ffffffffffffffffffffffffffffffffffffffff1691505b808061055590611a66565b91505061047a565b508273ffffffffffffffffffffffffffffffffffffffff168173ffffffffffffffffffffffffffffffffffffffff16146105cc576040517f08c379a00000000000000000000000000000000000000000000000000000000081526004016105c390611b71565b60405180910390fd5b60005b82600701805490508160ff1610156106a6578373ffffffffffffffffffffffffffffffffffffffff16836007018260ff16815481106106115761061061198f565b5b9060005260206000200160009054906101000a900473ffffffffffffffffffffffffffffffffffffffff1673ffffffffffffffffffffffffffffffffffffffff161415610693576040517f08c379a000000000000000000000000000000000000000000000000000000000815260040161068a90611bdd565b60405180910390fd5b808061069e90611a66565b9150506105cf565b50600015158260080160009054906101000a900460ff161515146106ff576040517f08c379a00000000000000000000000000000000000000000000000000000000081526004016106f690611c49565b60405180910390fd5b81600701839080600181540180825580915050600190039060005260206000200160009091909190916101000a81548173ffffffffffffffffffffffffffffffffffffffff021916908373ffffffffffffffffffffffffffffffffffffffff16021790555060008373ffffffffffffffffffffffffffffffffffffffff16836004015460405161078e90611c9a565b60006040518083038185875af1925050503d80600081146107cb576040519150601f19603f3d011682016040523d82523d6000602084013e6107d0565b606091505b505090508061082357826007018054806107ed576107ec611caf565b5b6001900381819060005260206000200160006101000a81549073ffffffffffffffffffffffffffffffffffffffff021916905590555b80610863576040517f08c379a000000000000000000000000000000000000000000000000000000000815260040161085a90611d2a565b60405180910390fd5b7ff8d1583a733d83bdd3ef5464129d0a95a36d62b382d31c6d0467a61f4264381b8585604051610894929190611a90565b60405180910390a15050505050565b600033308787876040516020016108be959493929190611db3565b60405160208183030381529060405280519060200120905060608060405180610120016040528084815260200186868080601f016020809104026020016040519081016040528093929190818152602001838380828437600081840152601f19601f8201169050808301925050505050505081526020013373ffffffffffffffffffffffffffffffffffffffff168152602001898152602001888152602001878152602001838152602001828152602001600015158152506000808581526020019081526020016000206000820151816000015560208201518160010190805190602001906109ae929190611399565b5060408201518160020160006101000a81548173ffffffffffffffffffffffffffffffffffffffff021916908373ffffffffffffffffffffffffffffffffffffffff160217905550606082015181600301556080820151816004015560a0820151816005015560c0820151816006019080519060200190610a3092919061141f565b5060e0820151816007019080519060200190610a4d92919061141f565b506101008201518160080160006101000a81548160ff0219169083151502179055509050507f2553138c3f9c9008f266dbdbe9fc64f5b71e098d06ef714a190a65a8b9fc6bf383338a898b8a8a604051610aad9796959493929190611e4e565b60405180910390a15050505050505050565b60008060008381526020019081526020016000206040518061012001604052908160008201548152602001600182018054610af990611ee7565b80601f0160208091040260200160405190810160405280929190818152602001828054610b2590611ee7565b8015610b725780601f10610b4757610100808354040283529160200191610b72565b820191906000526020600020905b815481529060010190602001808311610b5557829003601f168201915b505050505081526020016002820160009054906101000a900473ffffffffffffffffffffffffffffffffffffffff1673ffffffffffffffffffffffffffffffffffffffff1673ffffffffffffffffffffffffffffffffffffffff16815260200160038201548152602001600482015481526020016005820154815260200160068201805480602002602001604051908101604052809291908181526020018280548015610c7457602002820191906000526020600020905b8160009054906101000a900473ffffffffffffffffffffffffffffffffffffffff1673ffffffffffffffffffffffffffffffffffffffff1681526020019060010190808311610c2a575b5050505050815260200160078201805480602002602001604051908101604052809291908181526020018280548015610d0257602002820191906000526020600020905b8160009054906101000a900473ffffffffffffffffffffffffffffffffffffffff1673ffffffffffffffffffffffffffffffffffffffff1681526020019060010190808311610cb8575b505050505081526020016008820160009054906101000a900460ff161515151581525050905080610100015115610d6e576040517f08c379a0000000000000000000000000000000000000000000000000000000008152600401610d6590611f65565b60405180910390fd5b62093a808160600151610d819190611f85565b421015610dc3576040517f08c379a0000000000000000000000000000000000000000000000000000000008152600401610dba90612027565b60405180910390fd5b806040015173ffffffffffffffffffffffffffffffffffffffff163373ffffffffffffffffffffffffffffffffffffffff1614610e35576040517f08c379a0000000000000000000000000000000000000000000000000000000008152600401610e2c90612093565b60405180910390fd5b60008160e00151518260c0015151610e4d91906120b3565b90506000826080015182610e6191906120e7565b905060018361010001901515908115158152505060003373ffffffffffffffffffffffffffffffffffffffff1682604051610e9b90611c9a565b60006040518083038185875af1925050503d8060008114610ed8576040519150601f19603f3d011682016040523d82523d6000602084013e610edd565b606091505b5050905080610ef3576000151584610100015150505b80610f33576040517f08c379a0000000000000000000000000000000000000000000000000000000008152600401610f2a90611d2a565b60405180910390fd5b7f393073ea1365f611c3d2f240c992960d2b99dc81715555d3fc40fc55ba80af9c85604051610f629190612141565b60405180910390a15050505050565b6000602052806000526040600020600091509050806000015490806001018054610f9a90611ee7565b80601f0160208091040260200160405190810160405280929190818152602001828054610fc690611ee7565b80156110135780601f10610fe857610100808354040283529160200191611013565b820191906000526020600020905b815481529060010190602001808311610ff657829003601f168201915b5050505050908060020160009054906101000a900473ffffffffffffffffffffffffffffffffffffffff16908060030154908060040154908060050154908060080160009054906101000a900460ff16905087565b600080600083815260200190815260200160002060405180610120016040529081600082015481526020016001820180546110a290611ee7565b80601f01602080910402602001604051908101604052809291908181526020018280546110ce90611ee7565b801561111b5780601f106110f05761010080835404028352916020019161111b565b820191906000526020600020905b8154815290600101906020018083116110fe57829003601f168201915b505050505081526020016002820160009054906101000a900473ffffffffffffffffffffffffffffffffffffffff1673ffffffffffffffffffffffffffffffffffffffff1673ffffffffffffffffffffffffffffffffffffffff1681526020016003820154815260200160048201548152602001600582015481526020016006820180548060200260200160405190810160405280929190818152602001828054801561121d57602002820191906000526020600020905b8160009054906101000a900473ffffffffffffffffffffffffffffffffffffffff1673ffffffffffffffffffffffffffffffffffffffff16815260200190600101908083116111d3575b50505050508152602001600782018054806020026020016040519081016040528092919081815260200182805480156112ab57602002820191906000526020600020905b8160009054906101000a900473ffffffffffffffffffffffffffffffffffffffff1673ffffffffffffffffffffffffffffffffffffffff1681526020019060010190808311611261575b505050505081526020016008820160009054906101000a900460ff1615151515815250509050806040015173ffffffffffffffffffffffffffffffffffffffff163373ffffffffffffffffffffffffffffffffffffffff1614611343576040517f08c379a000000000000000000000000000000000000000000000000000000000815260040161133a90611b05565b60405180910390fd5b60005b8160c00151518160ff16101561139457611381838360c001518360ff16815181106113745761137361198f565b5b60200260200101516103ca565b808061138c90611a66565b915050611346565b505050565b8280546113a590611ee7565b90600052602060002090601f0160209004810192826113c7576000855561140e565b82601f106113e057805160ff191683800117855561140e565b8280016001018555821561140e579182015b8281111561140d5782518255916020019190600101906113f2565b5b50905061141b91906114a9565b5090565b828054828255906000526020600020908101928215611498579160200282015b828111156114975782518260006101000a81548173ffffffffffffffffffffffffffffffffffffffff021916908373ffffffffffffffffffffffffffffffffffffffff1602179055509160200191906001019061143f565b5b5090506114a591906114a9565b5090565b5b808211156114c25760008160009055506001016114aa565b5090565b600080fd5b600080fd5b6000819050919050565b6114e3816114d0565b81146114ee57600080fd5b50565b600081359050611500816114da565b92915050565b60006020828403121561151c5761151b6114c6565b5b600061152a848285016114f1565b91505092915050565b600073ffffffffffffffffffffffffffffffffffffffff82169050919050565b600061155e82611533565b9050919050565b61156e81611553565b811461157957600080fd5b50565b60008135905061158b81611565565b92915050565b600080604083850312156115a8576115a76114c6565b5b60006115b6858286016114f1565b92505060206115c78582860161157c565b9150509250929050565b6000819050919050565b6115e4816115d1565b81146115ef57600080fd5b50565b600081359050611601816115db565b92915050565b600080fd5b600080fd5b600080fd5b60008083601f84011261162c5761162b611607565b5b8235905067ffffffffffffffff8111156116495761164861160c565b5b60208301915083600182028301111561166557611664611611565b5b9250929050565b600080600080600060808688031215611688576116876114c6565b5b6000611696888289016115f2565b95505060206116a7888289016115f2565b94505060406116b8888289016115f2565b935050606086013567ffffffffffffffff8111156116d9576116d86114cb565b5b6116e588828901611616565b92509250509295509295909350565b6116fd816114d0565b82525050565b600081519050919050565b600082825260208201905092915050565b60005b8381101561173d578082015181840152602081019050611722565b8381111561174c576000848401525b50505050565b6000601f19601f8301169050919050565b600061176e82611703565b611778818561170e565b935061178881856020860161171f565b61179181611752565b840191505092915050565b6117a581611553565b82525050565b6117b4816115d1565b82525050565b60008115159050919050565b6117cf816117ba565b82525050565b600060e0820190506117ea600083018a6116f4565b81810360208301526117fc8189611763565b905061180b604083018861179c565b61181860608301876117ab565b61182560808301866117ab565b61183260a08301856117ab565b61183f60c08301846117c6565b98975050505050505050565b7f4e4f5420454e4f55474800000000000000000000000000000000000000000000600082015250565b6000611881600a8361170e565b915061188c8261184b565b602082019050919050565b600060208201905081810360008301526118b081611874565b9050919050565b7f414c52454144592048415050454e440000000000000000000000000000000000600082015250565b60006118ed600f8361170e565b91506118f8826118b7565b602082019050919050565b6000602082019050818103600083015261191c816118e0565b9050919050565b7f54686973206576656e7420686173207265616368656420636170616369747900600082015250565b6000611959601f8361170e565b915061196482611923565b602082019050919050565b600060208201905081810360008301526119888161194c565b9050919050565b7f4e487b7100000000000000000000000000000000000000000000000000000000600052603260045260246000fd5b7f414c524541445920434f4e4649524d4544000000000000000000000000000000600082015250565b60006119f460118361170e565b91506119ff826119be565b602082019050919050565b60006020820190508181036000830152611a23816119e7565b9050919050565b7f4e487b7100000000000000000000000000000000000000000000000000000000600052601160045260246000fd5b600060ff82169050919050565b6000611a7182611a59565b915060ff821415611a8557611a84611a2a565b5b600182019050919050565b6000604082019050611aa560008301856116f4565b611ab2602083018461179c565b9392505050565b7f4e4f5420415554484f52495a4544000000000000000000000000000000000000600082015250565b6000611aef600e8361170e565b9150611afa82611ab9565b602082019050919050565b60006020820190508181036000830152611b1e81611ae2565b9050919050565b7f4e4f205253565020544f20434f4e4649524d0000000000000000000000000000600082015250565b6000611b5b60128361170e565b9150611b6682611b25565b602082019050919050565b60006020820190508181036000830152611b8a81611b4e565b9050919050565b7f414c524541445920434c41494d45440000000000000000000000000000000000600082015250565b6000611bc7600f8361170e565b9150611bd282611b91565b602082019050919050565b60006020820190508181036000830152611bf681611bba565b9050919050565b7f414c52454144592050414944204f555400000000000000000000000000000000600082015250565b6000611c3360108361170e565b9150611c3e82611bfd565b602082019050919050565b60006020820190508181036000830152611c6281611c26565b9050919050565b600081905092915050565b50565b6000611c84600083611c69565b9150611c8f82611c74565b600082019050919050565b6000611ca582611c77565b9150819050919050565b7f4e487b7100000000000000000000000000000000000000000000000000000000600052603160045260246000fd5b7f4661696c656420746f2073656e64204574686572000000000000000000000000600082015250565b6000611d1460148361170e565b9150611d1f82611cde565b602082019050919050565b60006020820190508181036000830152611d4381611d07565b9050919050565b60008160601b9050919050565b6000611d6282611d4a565b9050919050565b6000611d7482611d57565b9050919050565b611d8c611d8782611553565b611d69565b82525050565b6000819050919050565b611dad611da8826115d1565b611d92565b82525050565b6000611dbf8288611d7b565b601482019150611dcf8287611d7b565b601482019150611ddf8286611d9c565b602082019150611def8285611d9c565b602082019150611dff8284611d9c565b6020820191508190509695505050505050565b82818337600083830152505050565b6000611e2d838561170e565b9350611e3a838584611e12565b611e4383611752565b840190509392505050565b600060c082019050611e63600083018a6116f4565b611e70602083018961179c565b611e7d60408301886117ab565b611e8a60608301876117ab565b611e9760808301866117ab565b81810360a0830152611eaa818486611e21565b905098975050505050505050565b7f4e487b7100000000000000000000000000000000000000000000000000000000600052602260045260246000fd5b60006002820490506001821680611eff57607f821691505b60208210811415611f1357611f12611eb8565b5b50919050565b7f414c524541445920504149440000000000000000000000000000000000000000600082015250565b6000611f4f600c8361170e565b9150611f5a82611f19565b602082019050919050565b60006020820190508181036000830152611f7e81611f42565b9050919050565b6000611f90826115d1565b9150611f9b836115d1565b9250827fffffffffffffffffffffffffffffffffffffffffffffffffffffffffffffffff03821115611fd057611fcf611a2a565b5b828201905092915050565b7f544f4f204541524c590000000000000000000000000000000000000000000000600082015250565b600061201160098361170e565b915061201c82611fdb565b602082019050919050565b6000602082019050818103600083015261204081612004565b9050919050565b7f4d555354204245204556454e54204f574e455200000000000000000000000000600082015250565b600061207d60138361170e565b915061208882612047565b602082019050919050565b600060208201905081810360008301526120ac81612070565b9050919050565b60006120be826115d1565b91506120c9836115d1565b9250828210156120dc576120db611a2a565b5b828203905092915050565b60006120f2826115d1565b91506120fd836115d1565b9250817fffffffffffffffffffffffffffffffffffffffffffffffffffffffffffffffff048311821515161561213657612135611a2a565b5b828202905092915050565b600060208201905061215660008301846116f4565b9291505056fea2646970667358221220ed3dde62528150a2a6e67d5fb8de59bcd494c21ae5e29ea267db488a44cf93be64736f6c63430008090033",
  "linkReferences": {},
  "deployedLinkReferences": {}
}